{
  "contractName": "LendableSBT",
  "abi": [
    {
      "inputs": [
        {
          "internalType": "string",
          "name": "name_",
          "type": "string"
        },
        {
          "internalType": "string",
          "name": "symbol_",
          "type": "string"
        },
        {
          "internalType": "bool",
          "name": "_isLocked",
          "type": "bool"
        }
      ],
      "stateMutability": "nonpayable",
      "type": "constructor"
    },
    {
      "inputs": [],
      "name": "ErrLocked",
      "type": "error"
    },
    {
      "inputs": [],
      "name": "ErrNotFound",
      "type": "error"
    },
    {
      "anonymous": false,
      "inputs": [
        {
          "indexed": true,
          "internalType": "address",
          "name": "owner",
          "type": "address"
        },
        {
          "indexed": true,
          "internalType": "address",
          "name": "approved",
          "type": "address"
        },
        {
          "indexed": true,
          "internalType": "uint256",
          "name": "tokenId",
          "type": "uint256"
        }
      ],
      "name": "Approval",
      "type": "event"
    },
    {
      "anonymous": false,
      "inputs": [
        {
          "indexed": true,
          "internalType": "address",
          "name": "owner",
          "type": "address"
        },
        {
          "indexed": true,
          "internalType": "address",
          "name": "operator",
          "type": "address"
        },
        {
          "indexed": false,
          "internalType": "bool",
          "name": "approved",
          "type": "bool"
        }
      ],
      "name": "ApprovalForAll",
      "type": "event"
    },
    {
      "anonymous": false,
      "inputs": [
        {
          "indexed": false,
          "internalType": "uint256",
          "name": "tokenId",
          "type": "uint256"
        }
      ],
      "name": "Locked",
      "type": "event"
    },
    {
      "anonymous": false,
      "inputs": [
        {
          "indexed": true,
          "internalType": "address",
          "name": "previousOwner",
          "type": "address"
        },
        {
          "indexed": true,
          "internalType": "address",
          "name": "newOwner",
          "type": "address"
        }
      ],
      "name": "OwnershipTransferred",
      "type": "event"
    },
    {
      "anonymous": false,
      "inputs": [
        {
          "indexed": true,
          "internalType": "address",
          "name": "from",
          "type": "address"
        },
        {
          "indexed": true,
          "internalType": "address",
          "name": "to",
          "type": "address"
        },
        {
          "indexed": true,
          "internalType": "uint256",
          "name": "tokenId",
          "type": "uint256"
        }
      ],
      "name": "Transfer",
      "type": "event"
    },
    {
      "anonymous": false,
      "inputs": [
        {
          "indexed": false,
          "internalType": "uint256",
          "name": "tokenId",
          "type": "uint256"
        }
      ],
      "name": "Unlocked",
      "type": "event"
    },
    {
      "inputs": [
        {
          "internalType": "address",
          "name": "approved",
          "type": "address"
        },
        {
          "internalType": "uint256",
          "name": "tokenId",
          "type": "uint256"
        }
      ],
      "name": "approve",
      "outputs": [],
      "stateMutability": "nonpayable",
      "type": "function"
    },
    {
      "inputs": [
        {
          "internalType": "address",
          "name": "owner",
          "type": "address"
        }
      ],
      "name": "balanceOf",
      "outputs": [
        {
          "internalType": "uint256",
          "name": "",
          "type": "uint256"
        }
      ],
      "stateMutability": "view",
      "type": "function",
      "constant": true
    },
    {
      "inputs": [
        {
          "internalType": "uint256",
          "name": "tokenId",
          "type": "uint256"
        }
      ],
      "name": "getApproved",
      "outputs": [
        {
          "internalType": "address",
          "name": "",
          "type": "address"
        }
      ],
      "stateMutability": "view",
      "type": "function",
      "constant": true
    },
    {
      "inputs": [
        {
          "internalType": "address",
          "name": "owner",
          "type": "address"
        },
        {
          "internalType": "address",
          "name": "operator",
          "type": "address"
        }
      ],
      "name": "isApprovedForAll",
      "outputs": [
        {
          "internalType": "bool",
          "name": "",
          "type": "bool"
        }
      ],
      "stateMutability": "view",
      "type": "function",
      "constant": true
    },
    {
      "inputs": [
        {
          "internalType": "uint256",
          "name": "tokenId",
          "type": "uint256"
        }
      ],
      "name": "locked",
      "outputs": [
        {
          "internalType": "bool",
          "name": "",
          "type": "bool"
        }
      ],
      "stateMutability": "view",
      "type": "function",
      "constant": true
    },
    {
      "inputs": [],
      "name": "name",
      "outputs": [
        {
          "internalType": "string",
          "name": "",
          "type": "string"
        }
      ],
      "stateMutability": "view",
      "type": "function",
      "constant": true
    },
    {
      "inputs": [],
      "name": "owner",
      "outputs": [
        {
          "internalType": "address",
          "name": "",
          "type": "address"
        }
      ],
      "stateMutability": "view",
      "type": "function",
      "constant": true
    },
    {
      "inputs": [
        {
          "internalType": "uint256",
          "name": "tokenId",
          "type": "uint256"
        }
      ],
      "name": "ownerOf",
      "outputs": [
        {
          "internalType": "address",
          "name": "",
          "type": "address"
        }
      ],
      "stateMutability": "view",
      "type": "function",
      "constant": true
    },
    {
      "inputs": [],
      "name": "renounceOwnership",
      "outputs": [],
      "stateMutability": "nonpayable",
      "type": "function"
    },
    {
      "inputs": [
        {
          "internalType": "address",
          "name": "from",
          "type": "address"
        },
        {
          "internalType": "address",
          "name": "to",
          "type": "address"
        },
        {
          "internalType": "uint256",
          "name": "tokenId",
          "type": "uint256"
        }
      ],
      "name": "safeTransferFrom",
      "outputs": [],
      "stateMutability": "nonpayable",
      "type": "function"
    },
    {
      "inputs": [
        {
          "internalType": "address",
          "name": "from",
          "type": "address"
        },
        {
          "internalType": "address",
          "name": "to",
          "type": "address"
        },
        {
          "internalType": "uint256",
          "name": "tokenId",
          "type": "uint256"
        },
        {
          "internalType": "bytes",
          "name": "data",
          "type": "bytes"
        }
      ],
      "name": "safeTransferFrom",
      "outputs": [],
      "stateMutability": "nonpayable",
      "type": "function"
    },
    {
      "inputs": [
        {
          "internalType": "address",
          "name": "operator",
          "type": "address"
        },
        {
          "internalType": "bool",
          "name": "approved",
          "type": "bool"
        }
      ],
      "name": "setApprovalForAll",
      "outputs": [],
      "stateMutability": "nonpayable",
      "type": "function"
    },
    {
      "inputs": [
        {
          "internalType": "bytes4",
          "name": "interfaceId",
          "type": "bytes4"
        }
      ],
      "name": "supportsInterface",
      "outputs": [
        {
          "internalType": "bool",
          "name": "",
          "type": "bool"
        }
      ],
      "stateMutability": "view",
      "type": "function",
      "constant": true
    },
    {
      "inputs": [],
      "name": "symbol",
      "outputs": [
        {
          "internalType": "string",
          "name": "",
          "type": "string"
        }
      ],
      "stateMutability": "view",
      "type": "function",
      "constant": true
    },
    {
      "inputs": [
        {
          "internalType": "uint256",
          "name": "tokenId",
          "type": "uint256"
        }
      ],
      "name": "tokenURI",
      "outputs": [
        {
          "internalType": "string",
          "name": "",
          "type": "string"
        }
      ],
      "stateMutability": "view",
      "type": "function",
      "constant": true
    },
    {
      "inputs": [
        {
          "internalType": "address",
          "name": "from",
          "type": "address"
        },
        {
          "internalType": "address",
          "name": "to",
          "type": "address"
        },
        {
          "internalType": "uint256",
          "name": "tokenId",
          "type": "uint256"
        }
      ],
      "name": "transferFrom",
      "outputs": [],
      "stateMutability": "nonpayable",
      "type": "function"
    },
    {
      "inputs": [
        {
          "internalType": "address",
          "name": "newOwner",
          "type": "address"
        }
      ],
      "name": "transferOwnership",
      "outputs": [],
      "stateMutability": "nonpayable",
      "type": "function"
    },
    {
      "inputs": [
        {
          "internalType": "string",
          "name": "newBaseURI",
          "type": "string"
        }
      ],
      "name": "setBaseURI",
      "outputs": [],
      "stateMutability": "nonpayable",
      "type": "function"
    },
    {
      "inputs": [
        {
          "internalType": "address",
          "name": "to",
          "type": "address"
        }
      ],
      "name": "mint",
      "outputs": [
        {
          "internalType": "uint256",
          "name": "",
          "type": "uint256"
        }
      ],
      "stateMutability": "nonpayable",
      "type": "function"
    },
    {
      "inputs": [
        {
          "internalType": "address",
          "name": "renter",
          "type": "address"
        },
        {
          "internalType": "uint256",
          "name": "tokenId",
          "type": "uint256"
        },
        {
          "internalType": "uint256",
          "name": "expire",
          "type": "uint256"
        },
        {
          "internalType": "uint256",
          "name": "rewardAmount",
          "type": "uint256"
        }
      ],
      "name": "setRentalData",
      "outputs": [],
      "stateMutability": "nonpayable",
      "type": "function"
    },
    {
      "inputs": [
        {
          "internalType": "uint256",
          "name": "tokenId",
          "type": "uint256"
        }
      ],
      "name": "rent",
      "outputs": [],
      "stateMutability": "payable",
      "type": "function",
      "payable": true
    },
    {
      "inputs": [
        {
          "internalType": "uint256",
          "name": "amount",
          "type": "uint256"
        }
      ],
      "name": "withdraw",
      "outputs": [],
      "stateMutability": "nonpayable",
      "type": "function"
    },
    {
      "inputs": [
        {
          "internalType": "address",
          "name": "renter",
          "type": "address"
        },
        {
          "internalType": "uint256",
          "name": "tokenId",
          "type": "uint256"
        }
      ],
      "name": "getRentalData",
      "outputs": [
        {
          "components": [
            {
              "internalType": "uint256",
              "name": "expire",
              "type": "uint256"
            },
            {
              "internalType": "bool",
              "name": "isRented",
              "type": "bool"
            },
            {
              "internalType": "uint256",
              "name": "rewardAmount",
              "type": "uint256"
            }
          ],
          "internalType": "struct LendableSBT.UserInfo",
          "name": "",
          "type": "tuple"
        }
      ],
      "stateMutability": "view",
      "type": "function",
      "constant": true
    },
    {
      "inputs": [
        {
          "internalType": "address",
          "name": "renter",
          "type": "address"
        },
        {
          "internalType": "uint256",
          "name": "tokenId",
          "type": "uint256"
        }
      ],
      "name": "isTokenExpiredCheck",
      "outputs": [
        {
          "internalType": "bool",
          "name": "",
          "type": "bool"
        }
      ],
      "stateMutability": "view",
      "type": "function",
      "constant": true
    },
    {
      "inputs": [
        {
          "internalType": "address",
          "name": "renter",
          "type": "address"
        },
        {
          "internalType": "uint256",
          "name": "tokenId",
          "type": "uint256"
        }
      ],
      "name": "isRentedCheck",
      "outputs": [
        {
          "internalType": "bool",
          "name": "",
          "type": "bool"
        }
      ],
      "stateMutability": "view",
      "type": "function",
      "constant": true
    }
  ],
  "bytecode": "0x6080604052600160095f6101000a81548160ff0219169083151502179055503480156200002a575f80fd5b5060405162003eba38038062003eba8339818101604052810190620000509190620003aa565b8282828282815f908162000065919062000678565b50806001908162000077919062000678565b5050508060065f6101000a81548160ff021916908315150217905550505050620000b6620000aa6200011f60201b60201c565b6200012660201b60201c565b8060095f6101000a81548160ff0219169083151502179055506040518060400160405280601c81526020017f68747470733a2f2f6c656e6461626c655342542f6578616d706c652f00000000815250600a908162000115919062000678565b505050506200075c565b5f33905090565b5f600660019054906101000a900473ffffffffffffffffffffffffffffffffffffffff16905081600660016101000a81548173ffffffffffffffffffffffffffffffffffffffff021916908373ffffffffffffffffffffffffffffffffffffffff1602179055508173ffffffffffffffffffffffffffffffffffffffff168173ffffffffffffffffffffffffffffffffffffffff167f8be0079c531659141344cd1fd0a4f28419497f9722a3daafe3b4186f6b6457e060405160405180910390a35050565b5f604051905090565b5f80fd5b5f80fd5b5f80fd5b5f80fd5b5f601f19601f8301169050919050565b7f4e487b71000000000000000000000000000000000000000000000000000000005f52604160045260245ffd5b6200024c8262000204565b810181811067ffffffffffffffff821117156200026e576200026d62000214565b5b80604052505050565b5f62000282620001eb565b905062000290828262000241565b919050565b5f67ffffffffffffffff821115620002b257620002b162000214565b5b620002bd8262000204565b9050602081019050919050565b5f5b83811015620002e9578082015181840152602081019050620002cc565b5f8484015250505050565b5f6200030a620003048462000295565b62000277565b90508281526020810184848401111562000329576200032862000200565b5b62000336848285620002ca565b509392505050565b5f82601f830112620003555762000354620001fc565b5b815162000367848260208601620002f4565b91505092915050565b5f8115159050919050565b620003868162000370565b811462000391575f80fd5b50565b5f81519050620003a4816200037b565b92915050565b5f805f60608486031215620003c457620003c3620001f4565b5b5f84015167ffffffffffffffff811115620003e457620003e3620001f8565b5b620003f2868287016200033e565b935050602084015167ffffffffffffffff811115620004165762000415620001f8565b5b62000424868287016200033e565b9250506040620004378682870162000394565b9150509250925092565b5f81519050919050565b7f4e487b71000000000000000000000000000000000000000000000000000000005f52602260045260245ffd5b5f60028204905060018216806200049057607f821691505b602082108103620004a657620004a56200044b565b5b50919050565b5f819050815f5260205f209050919050565b5f6020601f8301049050919050565b5f82821b905092915050565b5f600883026200050a7fffffffffffffffffffffffffffffffffffffffffffffffffffffffffffffffff82620004cd565b620005168683620004cd565b95508019841693508086168417925050509392505050565b5f819050919050565b5f819050919050565b5f620005606200055a62000554846200052e565b62000537565b6200052e565b9050919050565b5f819050919050565b6200057b8362000540565b620005936200058a8262000567565b848454620004d9565b825550505050565b5f90565b620005a96200059b565b620005b681848462000570565b505050565b5b81811015620005dd57620005d15f826200059f565b600181019050620005bc565b5050565b601f8211156200062c57620005f681620004ac565b6200060184620004be565b8101602085101562000611578190505b620006296200062085620004be565b830182620005bb565b50505b505050565b5f82821c905092915050565b5f6200064e5f198460080262000631565b1980831691505092915050565b5f6200066883836200063d565b9150826002028217905092915050565b620006838262000441565b67ffffffffffffffff8111156200069f576200069e62000214565b5b620006ab825462000478565b620006b8828285620005e1565b5f60209050601f831160018114620006ee575f8415620006d9578287015190505b620006e585826200065b565b86555062000754565b601f198416620006fe86620004ac565b5f5b82811015620007275784890151825560018201915060208501945060208101905062000700565b8683101562000747578489015162000743601f8916826200063d565b8355505b6001600288020188555050505b505050505050565b613750806200076a5f395ff3fe608060405260043610610165575f3560e01c806370a08231116100d0578063b45a3c0e11610089578063e300ec7411610063578063e300ec7414610539578063e985e9c514610575578063f2fde38b146105b1578063ffd62f7b146105d957610165565b8063b45a3c0e14610499578063b88d4fde146104d5578063c87b56dd146104fd57610165565b806370a08231146103af578063715018a6146103eb5780637456be7d146104015780638da5cb5b1461041d57806395d89b4114610447578063a22cb4651461047157610165565b806336a999db1161012257806336a999db1461028357806342842e0e146102bf57806355f804b3146102e75780636016f1f11461030f5780636352211e146103375780636a6278421461037357610165565b806301ffc9a71461016957806306fdde03146101a5578063081812fc146101cf578063095ea7b31461020b57806323b872dd146102335780632e1a7d4d1461025b575b5f80fd5b348015610174575f80fd5b5061018f600480360381019061018a91906124c9565b610615565b60405161019c919061250e565b60405180910390f35b3480156101b0575f80fd5b506101b961068e565b6040516101c691906125b1565b60405180910390f35b3480156101da575f80fd5b506101f560048036038101906101f09190612604565b61071d565b604051610202919061266e565b60405180910390f35b348015610216575f80fd5b50610231600480360381019061022c91906126b1565b61075f565b005b34801561023e575f80fd5b50610259600480360381019061025491906126ef565b6107b3565b005b348015610266575f80fd5b50610281600480360381019061027c9190612604565b610809565b005b34801561028e575f80fd5b506102a960048036038101906102a491906126b1565b610858565b6040516102b6919061250e565b60405180910390f35b3480156102ca575f80fd5b506102e560048036038101906102e091906126ef565b6108bf565b005b3480156102f2575f80fd5b5061030d6004803603810190610308919061286b565b610915565b005b34801561031a575f80fd5b50610335600480360381019061033091906128b2565b610930565b005b348015610342575f80fd5b5061035d60048036038101906103589190612604565b610a51565b60405161036a919061266e565b60405180910390f35b34801561037e575f80fd5b5061039960048036038101906103949190612916565b610ad5565b6040516103a69190612950565b60405180910390f35b3480156103ba575f80fd5b506103d560048036038101906103d09190612916565b610b54565b6040516103e29190612950565b60405180910390f35b3480156103f6575f80fd5b506103ff610c08565b005b61041b60048036038101906104169190612604565b610c1b565b005b348015610428575f80fd5b50610431610dbd565b60405161043e919061266e565b60405180910390f35b348015610452575f80fd5b5061045b610de6565b60405161046891906125b1565b60405180910390f35b34801561047c575f80fd5b5061049760048036038101906104929190612993565b610e76565b005b3480156104a4575f80fd5b506104bf60048036038101906104ba9190612604565b610eca565b6040516104cc919061250e565b60405180910390f35b3480156104e0575f80fd5b506104fb60048036038101906104f69190612a6f565b610f20565b005b348015610508575f80fd5b50610523600480360381019061051e9190612604565b610f78565b60405161053091906125b1565b60405180910390f35b348015610544575f80fd5b5061055f600480360381019061055a91906126b1565b610fdd565b60405161056c919061250e565b60405180910390f35b348015610580575f80fd5b5061059b60048036038101906105969190612aef565b61103a565b6040516105a8919061250e565b60405180910390f35b3480156105bc575f80fd5b506105d760048036038101906105d29190612916565b6110c8565b005b3480156105e4575f80fd5b506105ff60048036038101906105fa91906126b1565b61114a565b60405161060c9190612b8b565b60405180910390f35b5f7fb45a3c0e000000000000000000000000000000000000000000000000000000007bffffffffffffffffffffffffffffffffffffffffffffffffffffffff1916827bffffffffffffffffffffffffffffffffffffffffffffffffffffffff191614806106875750610686826111e0565b5b9050919050565b60605f805461069c90612bd1565b80601f01602080910402602001604051908101604052809291908181526020018280546106c890612bd1565b80156107135780601f106106ea57610100808354040283529160200191610713565b820191905f5260205f20905b8154815290600101906020018083116106f657829003601f168201915b5050505050905090565b5f610727826112c1565b60045f8381526020019081526020015f205f9054906101000a900473ffffffffffffffffffffffffffffffffffffffff169050919050565b60065f9054906101000a900460ff16156107a5576040517fbd291a9500000000000000000000000000000000000000000000000000000000815260040160405180910390fd5b6107af828261130c565b5050565b60065f9054906101000a900460ff16156107f9576040517fbd291a9500000000000000000000000000000000000000000000000000000000815260040160405180910390fd5b610804838383611422565b505050565b610811611482565b3373ffffffffffffffffffffffffffffffffffffffff166108fc8290811502906040515f60405180830381858888f19350505050158015610854573d5f803e3d5ffd5b5050565b5f60075f8381526020019081526020015f205f015f8473ffffffffffffffffffffffffffffffffffffffff1673ffffffffffffffffffffffffffffffffffffffff1681526020019081526020015f206001015f9054906101000a900460ff16905092915050565b60065f9054906101000a900460ff1615610905576040517fbd291a9500000000000000000000000000000000000000000000000000000000815260040160405180910390fd5b610910838383611500565b505050565b61091d611482565b80600a908161092c9190612d9e565b5050565b610938611482565b8160075f8581526020019081526020015f205f015f8673ffffffffffffffffffffffffffffffffffffffff1673ffffffffffffffffffffffffffffffffffffffff1681526020019081526020015f205f01819055505f60075f8581526020019081526020015f205f015f8673ffffffffffffffffffffffffffffffffffffffff1673ffffffffffffffffffffffffffffffffffffffff1681526020019081526020015f206001015f6101000a81548160ff0219169083151502179055508060075f8581526020019081526020015f205f015f8673ffffffffffffffffffffffffffffffffffffffff1673ffffffffffffffffffffffffffffffffffffffff1681526020019081526020015f206002018190555050505050565b5f80610a5c8361151f565b90505f73ffffffffffffffffffffffffffffffffffffffff168173ffffffffffffffffffffffffffffffffffffffff1603610acc576040517f08c379a0000000000000000000000000000000000000000000000000000000008152600401610ac390612eb7565b60405180910390fd5b80915050919050565b5f610ade611482565b610ae86008611558565b5f610af3600861156c565b9050610aff8382611578565b60095f9054906101000a900460ff1615610b4b577f032bc66be43dbccb7487781d168eb7bda224628a3b2c3388bdf69b532a3a161181604051610b429190612950565b60405180910390a15b80915050919050565b5f8073ffffffffffffffffffffffffffffffffffffffff168273ffffffffffffffffffffffffffffffffffffffff1603610bc3576040517f08c379a0000000000000000000000000000000000000000000000000000000008152600401610bba90612f45565b60405180910390fd5b60035f8373ffffffffffffffffffffffffffffffffffffffff1673ffffffffffffffffffffffffffffffffffffffff1681526020019081526020015f20549050919050565b610c10611482565b610c195f611595565b565b4260075f8381526020019081526020015f205f015f3373ffffffffffffffffffffffffffffffffffffffff1673ffffffffffffffffffffffffffffffffffffffff1681526020019081526020015f205f01541015610cae576040517f08c379a0000000000000000000000000000000000000000000000000000000008152600401610ca590612fad565b60405180910390fd5b5f151560075f8381526020019081526020015f205f015f3373ffffffffffffffffffffffffffffffffffffffff1673ffffffffffffffffffffffffffffffffffffffff1681526020019081526020015f206001015f9054906101000a900460ff16151514610d51576040517f08c379a0000000000000000000000000000000000000000000000000000000008152600401610d4890613015565b60405180910390fd5b600160075f8381526020019081526020015f205f015f3373ffffffffffffffffffffffffffffffffffffffff1673ffffffffffffffffffffffffffffffffffffffff1681526020019081526020015f206001015f6101000a81548160ff02191690831515021790555050565b5f600660019054906101000a900473ffffffffffffffffffffffffffffffffffffffff16905090565b606060018054610df590612bd1565b80601f0160208091040260200160405190810160405280929190818152602001828054610e2190612bd1565b8015610e6c5780601f10610e4357610100808354040283529160200191610e6c565b820191905f5260205f20905b815481529060010190602001808311610e4f57829003601f168201915b5050505050905090565b60065f9054906101000a900460ff1615610ebc576040517fbd291a9500000000000000000000000000000000000000000000000000000000815260040160405180910390fd5b610ec6828261165a565b5050565b5f610ed482611670565b610f0a576040517fae9a63f500000000000000000000000000000000000000000000000000000000815260040160405180910390fd5b60065f9054906101000a900460ff169050919050565b60065f9054906101000a900460ff1615610f66576040517fbd291a9500000000000000000000000000000000000000000000000000000000815260040160405180910390fd5b610f72848484846116b0565b50505050565b6060610f83826112c1565b5f610f8c611712565b90505f815111610faa5760405180602001604052805f815250610fd5565b80610fb4846117a2565b604051602001610fc592919061306d565b6040516020818303038152906040525b915050919050565b5f4260075f8481526020019081526020015f205f015f8573ffffffffffffffffffffffffffffffffffffffff1673ffffffffffffffffffffffffffffffffffffffff1681526020019081526020015f205f01541015905092915050565b5f60055f8473ffffffffffffffffffffffffffffffffffffffff1673ffffffffffffffffffffffffffffffffffffffff1681526020019081526020015f205f8373ffffffffffffffffffffffffffffffffffffffff1673ffffffffffffffffffffffffffffffffffffffff1681526020019081526020015f205f9054906101000a900460ff16905092915050565b6110d0611482565b5f73ffffffffffffffffffffffffffffffffffffffff168173ffffffffffffffffffffffffffffffffffffffff160361113e576040517f08c379a000000000000000000000000000000000000000000000000000000000815260040161113590613100565b60405180910390fd5b61114781611595565b50565b611152612443565b60075f8381526020019081526020015f205f015f8473ffffffffffffffffffffffffffffffffffffffff1673ffffffffffffffffffffffffffffffffffffffff1681526020019081526020015f206040518060600160405290815f8201548152602001600182015f9054906101000a900460ff16151515158152602001600282015481525050905092915050565b5f7f80ac58cd000000000000000000000000000000000000000000000000000000007bffffffffffffffffffffffffffffffffffffffffffffffffffffffff1916827bffffffffffffffffffffffffffffffffffffffffffffffffffffffff191614806112aa57507f5b5e139f000000000000000000000000000000000000000000000000000000007bffffffffffffffffffffffffffffffffffffffffffffffffffffffff1916827bffffffffffffffffffffffffffffffffffffffffffffffffffffffff1916145b806112ba57506112b98261186c565b5b9050919050565b6112ca81611670565b611309576040517f08c379a000000000000000000000000000000000000000000000000000000000815260040161130090612eb7565b60405180910390fd5b50565b5f61131682610a51565b90508073ffffffffffffffffffffffffffffffffffffffff168373ffffffffffffffffffffffffffffffffffffffff1603611386576040517f08c379a000000000000000000000000000000000000000000000000000000000815260040161137d9061318e565b60405180910390fd5b8073ffffffffffffffffffffffffffffffffffffffff166113a56118d5565b73ffffffffffffffffffffffffffffffffffffffff1614806113d457506113d3816113ce6118d5565b61103a565b5b611413576040517f08c379a000000000000000000000000000000000000000000000000000000000815260040161140a9061321c565b60405180910390fd5b61141d83836118dc565b505050565b61143361142d6118d5565b82611992565b611472576040517f08c379a0000000000000000000000000000000000000000000000000000000008152600401611469906132aa565b60405180910390fd5b61147d838383611a26565b505050565b61148a6118d5565b73ffffffffffffffffffffffffffffffffffffffff166114a8610dbd565b73ffffffffffffffffffffffffffffffffffffffff16146114fe576040517f08c379a00000000000000000000000000000000000000000000000000000000081526004016114f590613312565b60405180910390fd5b565b61151a83838360405180602001604052805f815250610f20565b505050565b5f60025f8381526020019081526020015f205f9054906101000a900473ffffffffffffffffffffffffffffffffffffffff169050919050565b6001815f015f828254019250508190555050565b5f815f01549050919050565b611591828260405180602001604052805f815250611d12565b5050565b5f600660019054906101000a900473ffffffffffffffffffffffffffffffffffffffff16905081600660016101000a81548173ffffffffffffffffffffffffffffffffffffffff021916908373ffffffffffffffffffffffffffffffffffffffff1602179055508173ffffffffffffffffffffffffffffffffffffffff168173ffffffffffffffffffffffffffffffffffffffff167f8be0079c531659141344cd1fd0a4f28419497f9722a3daafe3b4186f6b6457e060405160405180910390a35050565b61166c6116656118d5565b8383611d6c565b5050565b5f8073ffffffffffffffffffffffffffffffffffffffff166116918361151f565b73ffffffffffffffffffffffffffffffffffffffff1614159050919050565b6116c16116bb6118d5565b83611992565b611700576040517f08c379a00000000000000000000000000000000000000000000000000000000081526004016116f7906132aa565b60405180910390fd5b61170c84848484611ed3565b50505050565b6060600a805461172190612bd1565b80601f016020809104026020016040519081016040528092919081815260200182805461174d90612bd1565b80156117985780601f1061176f57610100808354040283529160200191611798565b820191905f5260205f20905b81548152906001019060200180831161177b57829003601f168201915b5050505050905090565b60605f60016117b084611f2f565b0190505f8167ffffffffffffffff8111156117ce576117cd612747565b5b6040519080825280601f01601f1916602001820160405280156118005781602001600182028036833780820191505090505b5090505f82602001820190505b600115611861578080600190039150507f3031323334353637383961626364656600000000000000000000000000000000600a86061a8153600a858161185657611855613330565b5b0494505f850361180d575b819350505050919050565b5f7f01ffc9a7000000000000000000000000000000000000000000000000000000007bffffffffffffffffffffffffffffffffffffffffffffffffffffffff1916827bffffffffffffffffffffffffffffffffffffffffffffffffffffffff1916149050919050565b5f33905090565b8160045f8381526020019081526020015f205f6101000a81548173ffffffffffffffffffffffffffffffffffffffff021916908373ffffffffffffffffffffffffffffffffffffffff160217905550808273ffffffffffffffffffffffffffffffffffffffff1661194c83610a51565b73ffffffffffffffffffffffffffffffffffffffff167f8c5be1e5ebec7d5bd14f71427d1e84f3dd0314c0f7b2291e5b200ac8c7c3b92560405160405180910390a45050565b5f8061199d83610a51565b90508073ffffffffffffffffffffffffffffffffffffffff168473ffffffffffffffffffffffffffffffffffffffff1614806119df57506119de818561103a565b5b80611a1d57508373ffffffffffffffffffffffffffffffffffffffff16611a058461071d565b73ffffffffffffffffffffffffffffffffffffffff16145b91505092915050565b8273ffffffffffffffffffffffffffffffffffffffff16611a4682610a51565b73ffffffffffffffffffffffffffffffffffffffff1614611a9c576040517f08c379a0000000000000000000000000000000000000000000000000000000008152600401611a93906133cd565b60405180910390fd5b5f73ffffffffffffffffffffffffffffffffffffffff168273ffffffffffffffffffffffffffffffffffffffff1603611b0a576040517f08c379a0000000000000000000000000000000000000000000000000000000008152600401611b019061345b565b60405180910390fd5b611b178383836001612080565b8273ffffffffffffffffffffffffffffffffffffffff16611b3782610a51565b73ffffffffffffffffffffffffffffffffffffffff1614611b8d576040517f08c379a0000000000000000000000000000000000000000000000000000000008152600401611b84906133cd565b60405180910390fd5b60045f8281526020019081526020015f205f6101000a81549073ffffffffffffffffffffffffffffffffffffffff0219169055600160035f8573ffffffffffffffffffffffffffffffffffffffff1673ffffffffffffffffffffffffffffffffffffffff1681526020019081526020015f205f8282540392505081905550600160035f8473ffffffffffffffffffffffffffffffffffffffff1673ffffffffffffffffffffffffffffffffffffffff1681526020019081526020015f205f82825401925050819055508160025f8381526020019081526020015f205f6101000a81548173ffffffffffffffffffffffffffffffffffffffff021916908373ffffffffffffffffffffffffffffffffffffffff160217905550808273ffffffffffffffffffffffffffffffffffffffff168473ffffffffffffffffffffffffffffffffffffffff167fddf252ad1be2c89b69c2b068fc378daa952ba7f163c4a11628f55a4df523b3ef60405160405180910390a4611d0d8383836001612086565b505050565b611d1c838361208c565b611d285f84848461229f565b611d67576040517f08c379a0000000000000000000000000000000000000000000000000000000008152600401611d5e906134e9565b60405180910390fd5b505050565b8173ffffffffffffffffffffffffffffffffffffffff168373ffffffffffffffffffffffffffffffffffffffff1603611dda576040517f08c379a0000000000000000000000000000000000000000000000000000000008152600401611dd190613551565b60405180910390fd5b8060055f8573ffffffffffffffffffffffffffffffffffffffff1673ffffffffffffffffffffffffffffffffffffffff1681526020019081526020015f205f8473ffffffffffffffffffffffffffffffffffffffff1673ffffffffffffffffffffffffffffffffffffffff1681526020019081526020015f205f6101000a81548160ff0219169083151502179055508173ffffffffffffffffffffffffffffffffffffffff168373ffffffffffffffffffffffffffffffffffffffff167f17307eab39ab6107e8899845ad3d59bd9653f200f220920489ca2b5937696c3183604051611ec6919061250e565b60405180910390a3505050565b611ede848484611a26565b611eea8484848461229f565b611f29576040517f08c379a0000000000000000000000000000000000000000000000000000000008152600401611f20906134e9565b60405180910390fd5b50505050565b5f805f90507a184f03e93ff9f4daa797ed6e38ed64bf6a1f0100000000000000008310611f8b577a184f03e93ff9f4daa797ed6e38ed64bf6a1f0100000000000000008381611f8157611f80613330565b5b0492506040810190505b6d04ee2d6d415b85acef81000000008310611fc8576d04ee2d6d415b85acef81000000008381611fbe57611fbd613330565b5b0492506020810190505b662386f26fc100008310611ff757662386f26fc100008381611fed57611fec613330565b5b0492506010810190505b6305f5e1008310612020576305f5e100838161201657612015613330565b5b0492506008810190505b612710831061204557612710838161203b5761203a613330565b5b0492506004810190505b60648310612068576064838161205e5761205d613330565b5b0492506002810190505b600a8310612077576001810190505b80915050919050565b50505050565b50505050565b5f73ffffffffffffffffffffffffffffffffffffffff168273ffffffffffffffffffffffffffffffffffffffff16036120fa576040517f08c379a00000000000000000000000000000000000000000000000000000000081526004016120f1906135b9565b60405180910390fd5b61210381611670565b15612143576040517f08c379a000000000000000000000000000000000000000000000000000000000815260040161213a90613621565b60405180910390fd5b6121505f83836001612080565b61215981611670565b15612199576040517f08c379a000000000000000000000000000000000000000000000000000000000815260040161219090613621565b60405180910390fd5b600160035f8473ffffffffffffffffffffffffffffffffffffffff1673ffffffffffffffffffffffffffffffffffffffff1681526020019081526020015f205f82825401925050819055508160025f8381526020019081526020015f205f6101000a81548173ffffffffffffffffffffffffffffffffffffffff021916908373ffffffffffffffffffffffffffffffffffffffff160217905550808273ffffffffffffffffffffffffffffffffffffffff165f73ffffffffffffffffffffffffffffffffffffffff167fddf252ad1be2c89b69c2b068fc378daa952ba7f163c4a11628f55a4df523b3ef60405160405180910390a461229b5f83836001612086565b5050565b5f6122bf8473ffffffffffffffffffffffffffffffffffffffff16612421565b15612414578373ffffffffffffffffffffffffffffffffffffffff1663150b7a026122e86118d5565b8786866040518563ffffffff1660e01b815260040161230a9493929190613691565b6020604051808303815f875af192505050801561234557506040513d601f19601f8201168201806040525081019061234291906136ef565b60015b6123c4573d805f8114612373576040519150601f19603f3d011682016040523d82523d5f602084013e612378565b606091505b505f8151036123bc576040517f08c379a00000000000000000000000000000000000000000000000000000000081526004016123b3906134e9565b60405180910390fd5b805181602001fd5b63150b7a0260e01b7bffffffffffffffffffffffffffffffffffffffffffffffffffffffff1916817bffffffffffffffffffffffffffffffffffffffffffffffffffffffff191614915050612419565b600190505b949350505050565b5f808273ffffffffffffffffffffffffffffffffffffffff163b119050919050565b60405180606001604052805f81526020015f151581526020015f81525090565b5f604051905090565b5f80fd5b5f80fd5b5f7fffffffff0000000000000000000000000000000000000000000000000000000082169050919050565b6124a881612474565b81146124b2575f80fd5b50565b5f813590506124c38161249f565b92915050565b5f602082840312156124de576124dd61246c565b5b5f6124eb848285016124b5565b91505092915050565b5f8115159050919050565b612508816124f4565b82525050565b5f6020820190506125215f8301846124ff565b92915050565b5f81519050919050565b5f82825260208201905092915050565b5f5b8381101561255e578082015181840152602081019050612543565b5f8484015250505050565b5f601f19601f8301169050919050565b5f61258382612527565b61258d8185612531565b935061259d818560208601612541565b6125a681612569565b840191505092915050565b5f6020820190508181035f8301526125c98184612579565b905092915050565b5f819050919050565b6125e3816125d1565b81146125ed575f80fd5b50565b5f813590506125fe816125da565b92915050565b5f602082840312156126195761261861246c565b5b5f612626848285016125f0565b91505092915050565b5f73ffffffffffffffffffffffffffffffffffffffff82169050919050565b5f6126588261262f565b9050919050565b6126688161264e565b82525050565b5f6020820190506126815f83018461265f565b92915050565b6126908161264e565b811461269a575f80fd5b50565b5f813590506126ab81612687565b92915050565b5f80604083850312156126c7576126c661246c565b5b5f6126d48582860161269d565b92505060206126e5858286016125f0565b9150509250929050565b5f805f606084860312156127065761270561246c565b5b5f6127138682870161269d565b93505060206127248682870161269d565b9250506040612735868287016125f0565b9150509250925092565b5f80fd5b5f80fd5b7f4e487b71000000000000000000000000000000000000000000000000000000005f52604160045260245ffd5b61277d82612569565b810181811067ffffffffffffffff8211171561279c5761279b612747565b5b80604052505050565b5f6127ae612463565b90506127ba8282612774565b919050565b5f67ffffffffffffffff8211156127d9576127d8612747565b5b6127e282612569565b9050602081019050919050565b828183375f83830152505050565b5f61280f61280a846127bf565b6127a5565b90508281526020810184848401111561282b5761282a612743565b5b6128368482856127ef565b509392505050565b5f82601f8301126128525761285161273f565b5b81356128628482602086016127fd565b91505092915050565b5f602082840312156128805761287f61246c565b5b5f82013567ffffffffffffffff81111561289d5761289c612470565b5b6128a98482850161283e565b91505092915050565b5f805f80608085870312156128ca576128c961246c565b5b5f6128d78782880161269d565b94505060206128e8878288016125f0565b93505060406128f9878288016125f0565b925050606061290a878288016125f0565b91505092959194509250565b5f6020828403121561292b5761292a61246c565b5b5f6129388482850161269d565b91505092915050565b61294a816125d1565b82525050565b5f6020820190506129635f830184612941565b92915050565b612972816124f4565b811461297c575f80fd5b50565b5f8135905061298d81612969565b92915050565b5f80604083850312156129a9576129a861246c565b5b5f6129b68582860161269d565b92505060206129c78582860161297f565b9150509250929050565b5f67ffffffffffffffff8211156129eb576129ea612747565b5b6129f482612569565b9050602081019050919050565b5f612a13612a0e846129d1565b6127a5565b905082815260208101848484011115612a2f57612a2e612743565b5b612a3a8482856127ef565b509392505050565b5f82601f830112612a5657612a5561273f565b5b8135612a66848260208601612a01565b91505092915050565b5f805f8060808587031215612a8757612a8661246c565b5b5f612a948782880161269d565b9450506020612aa58782880161269d565b9350506040612ab6878288016125f0565b925050606085013567ffffffffffffffff811115612ad757612ad6612470565b5b612ae387828801612a42565b91505092959194509250565b5f8060408385031215612b0557612b0461246c565b5b5f612b128582860161269d565b9250506020612b238582860161269d565b9150509250929050565b612b36816125d1565b82525050565b612b45816124f4565b82525050565b606082015f820151612b5f5f850182612b2d565b506020820151612b726020850182612b3c565b506040820151612b856040850182612b2d565b50505050565b5f606082019050612b9e5f830184612b4b565b92915050565b7f4e487b71000000000000000000000000000000000000000000000000000000005f52602260045260245ffd5b5f6002820490506001821680612be857607f821691505b602082108103612bfb57612bfa612ba4565b5b50919050565b5f819050815f5260205f209050919050565b5f6020601f8301049050919050565b5f82821b905092915050565b5f60088302612c5d7fffffffffffffffffffffffffffffffffffffffffffffffffffffffffffffffff82612c22565b612c678683612c22565b95508019841693508086168417925050509392505050565b5f819050919050565b5f612ca2612c9d612c98846125d1565b612c7f565b6125d1565b9050919050565b5f819050919050565b612cbb83612c88565b612ccf612cc782612ca9565b848454612c2e565b825550505050565b5f90565b612ce3612cd7565b612cee818484612cb2565b505050565b5b81811015612d1157612d065f82612cdb565b600181019050612cf4565b5050565b601f821115612d5657612d2781612c01565b612d3084612c13565b81016020851015612d3f578190505b612d53612d4b85612c13565b830182612cf3565b50505b505050565b5f82821c905092915050565b5f612d765f1984600802612d5b565b1980831691505092915050565b5f612d8e8383612d67565b9150826002028217905092915050565b612da782612527565b67ffffffffffffffff811115612dc057612dbf612747565b5b612dca8254612bd1565b612dd5828285612d15565b5f60209050601f831160018114612e06575f8415612df4578287015190505b612dfe8582612d83565b865550612e65565b601f198416612e1486612c01565b5f5b82811015612e3b57848901518255600182019150602085019450602081019050612e16565b86831015612e585784890151612e54601f891682612d67565b8355505b6001600288020188555050505b505050505050565b7f4552433732313a20696e76616c696420746f6b656e20494400000000000000005f82015250565b5f612ea1601883612531565b9150612eac82612e6d565b602082019050919050565b5f6020820190508181035f830152612ece81612e95565b9050919050565b7f4552433732313a2061646472657373207a65726f206973206e6f7420612076615f8201527f6c6964206f776e65720000000000000000000000000000000000000000000000602082015250565b5f612f2f602983612531565b9150612f3a82612ed5565b604082019050919050565b5f6020820190508181035f830152612f5c81612f23565b9050919050565b7f546f6b656e2068617320657870697265640000000000000000000000000000005f82015250565b5f612f97601183612531565b9150612fa282612f63565b602082019050919050565b5f6020820190508181035f830152612fc481612f8b565b9050919050565b7f546f6b656e20697320616c72656164792072656e7465640000000000000000005f82015250565b5f612fff601783612531565b915061300a82612fcb565b602082019050919050565b5f6020820190508181035f83015261302c81612ff3565b9050919050565b5f81905092915050565b5f61304782612527565b6130518185613033565b9350613061818560208601612541565b80840191505092915050565b5f613078828561303d565b9150613084828461303d565b91508190509392505050565b7f4f776e61626c653a206e6577206f776e657220697320746865207a65726f20615f8201527f6464726573730000000000000000000000000000000000000000000000000000602082015250565b5f6130ea602683612531565b91506130f582613090565b604082019050919050565b5f6020820190508181035f830152613117816130de565b9050919050565b7f4552433732313a20617070726f76616c20746f2063757272656e74206f776e655f8201527f7200000000000000000000000000000000000000000000000000000000000000602082015250565b5f613178602183612531565b91506131838261311e565b604082019050919050565b5f6020820190508181035f8301526131a58161316c565b9050919050565b7f4552433732313a20617070726f76652063616c6c6572206973206e6f7420746f5f8201527f6b656e206f776e6572206f7220617070726f76656420666f7220616c6c000000602082015250565b5f613206603d83612531565b9150613211826131ac565b604082019050919050565b5f6020820190508181035f830152613233816131fa565b9050919050565b7f4552433732313a2063616c6c6572206973206e6f7420746f6b656e206f776e655f8201527f72206f7220617070726f76656400000000000000000000000000000000000000602082015250565b5f613294602d83612531565b915061329f8261323a565b604082019050919050565b5f6020820190508181035f8301526132c181613288565b9050919050565b7f4f776e61626c653a2063616c6c6572206973206e6f7420746865206f776e65725f82015250565b5f6132fc602083612531565b9150613307826132c8565b602082019050919050565b5f6020820190508181035f830152613329816132f0565b9050919050565b7f4e487b71000000000000000000000000000000000000000000000000000000005f52601260045260245ffd5b7f4552433732313a207472616e736665722066726f6d20696e636f7272656374205f8201527f6f776e6572000000000000000000000000000000000000000000000000000000602082015250565b5f6133b7602583612531565b91506133c28261335d565b604082019050919050565b5f6020820190508181035f8301526133e4816133ab565b9050919050565b7f4552433732313a207472616e7366657220746f20746865207a65726f206164645f8201527f7265737300000000000000000000000000000000000000000000000000000000602082015250565b5f613445602483612531565b9150613450826133eb565b604082019050919050565b5f6020820190508181035f83015261347281613439565b9050919050565b7f4552433732313a207472616e7366657220746f206e6f6e2045524337323152655f8201527f63656976657220696d706c656d656e7465720000000000000000000000000000602082015250565b5f6134d3603283612531565b91506134de82613479565b604082019050919050565b5f6020820190508181035f830152613500816134c7565b9050919050565b7f4552433732313a20617070726f766520746f2063616c6c6572000000000000005f82015250565b5f61353b601983612531565b915061354682613507565b602082019050919050565b5f6020820190508181035f8301526135688161352f565b9050919050565b7f4552433732313a206d696e7420746f20746865207a65726f20616464726573735f82015250565b5f6135a3602083612531565b91506135ae8261356f565b602082019050919050565b5f6020820190508181035f8301526135d081613597565b9050919050565b7f4552433732313a20746f6b656e20616c7265616479206d696e746564000000005f82015250565b5f61360b601c83612531565b9150613616826135d7565b602082019050919050565b5f6020820190508181035f830152613638816135ff565b9050919050565b5f81519050919050565b5f82825260208201905092915050565b5f6136638261363f565b61366d8185613649565b935061367d818560208601612541565b61368681612569565b840191505092915050565b5f6080820190506136a45f83018761265f565b6136b1602083018661265f565b6136be6040830185612941565b81810360608301526136d08184613659565b905095945050505050565b5f815190506136e98161249f565b92915050565b5f602082840312156137045761370361246c565b5b5f613711848285016136db565b9150509291505056fea2646970667358221220f75d90e84683f0140429e80abbbc631d1e3ff713cdf33023344a8ad4260ded0864736f6c63430008150033",
  "immutableReferences": {},
  "source": "// SPDX-License-Identifier: MIT\npragma solidity ^0.8.0;\n\nimport \"@openzeppelin/contracts/token/ERC721/extensions/ERC721URIStorage.sol\";\nimport \"@openzeppelin/contracts/utils/Counters.sol\";\nimport \"@openzeppelin/contracts/access/Ownable.sol\";\nimport {ERC5192} from \"./ERC5192.sol\";\n\ncontract LendableSBT is ERC5192,Ownable {\n    \n    struct UserInfo {\n        uint256 expire;\n        bool isRented;\n        uint rewardAmount;\n    }\n\n    struct RentalData {\n        mapping(address => UserInfo) users;\n    }\n\n    mapping(uint256 => RentalData) tokenRentalData;\n\n    using Counters for Counters.Counter;\n    Counters.Counter private _tokenIds;\n    bool private isLocked = true;//TrueFalse\n    string private _currentBaseURI;\n    \n\n    constructor(string memory name_, string memory symbol_, bool _isLocked)\n\n     ERC5192(name_, symbol_, _isLocked)\n    {\n        isLocked = _isLocked;\n        _currentBaseURI =  \"https://lendableSBT/example/\"; // Default\n    }\n\n    //Folloing function\n    function _baseURI() internal view virtual override returns (string memory) {\n        return _currentBaseURI;\n    }\n    // URI\n    function setBaseURI(string memory newBaseURI) external onlyOwner {\n        _currentBaseURI = newBaseURI;\n    }\n\n    function mint(\n        address to\n        ) public onlyOwner returns (uint256) {\n        \n        _tokenIds.increment();\n        uint256 newTokenId = _tokenIds.current();\n        _safeMint(to, newTokenId);\n        if (isLocked) emit Locked(newTokenId);\n        return newTokenId;\n    }\n\n    function setRentalData(\n        address renter,\n        uint256 tokenId,\n        uint256 expire,\n        uint rewardAmount\n    ) public onlyOwner {\n        tokenRentalData[tokenId].users[renter].expire = expire;\n        tokenRentalData[tokenId].users[renter].isRented = false;\n        tokenRentalData[tokenId].users[renter].rewardAmount = rewardAmount;\n    }\n   \n    // function rent(uint256 tokenId) public{\n    //   require(\n    //         tokenRentalData[tokenId].users[msg.sender].expire >= block.timestamp,\n    //         \"Token is not available for rent\"\n    //     );\n    //     require(\n    //         tokenRentalData[tokenId].users[msg.sender].isRented == false,\n    //         \"Token is already rented\"\n    //     );\n    //     //payable(ownerOf(tokenId)).transfer(tokenRentalData[tokenId].users[msg.sender].rewardAmount);\n    //     // \n    //     tokenRentalData[tokenId].users[msg.sender].isRented = true;\n        \n    // }\n    function rent(uint256 tokenId) external payable {\n        require(\n            tokenRentalData[tokenId].users[msg.sender].expire >= block.timestamp,\n            \"Token has expired\"  // \n        );\n        require(\n            tokenRentalData[tokenId].users[msg.sender].isRented == false,\n            \"Token is already rented\"\n        );\n        //payable(ownerOf(tokenId)).call{value:tokenRentalData[tokenId].users[msg.sender].rewardAmount};\n        // \n        tokenRentalData[tokenId].users[msg.sender].isRented = true;\n    }\n    function withdraw(uint256 amount)public onlyOwner {\n       payable(msg.sender).transfer(amount);\n    }\n\n    function getRentalData(\n        address renter,\n        uint256 tokenId\n    ) public view returns (UserInfo memory) {\n        return tokenRentalData[tokenId].users[renter];\n    }\n    // \n   function isTokenExpiredCheck(address renter ,uint256 tokenId ) public view returns (bool) {\n       return (tokenRentalData[tokenId].users[renter].expire>=block.timestamp);\n   }\n     // \n    function isRentedCheck(address renter,uint256 tokenId) public view returns (bool) {\n       return tokenRentalData[tokenId].users[renter].isRented;\n   }\n}\n",
  "sourcePath": "/home/yasuhiro_iwai/intern/LendaleSBT/contracts/LendaleSBT.sol",
  "compiler": {
    "name": "solc",
    "version": "0.8.21+commit.d9974bed.Emscripten.clang"
  },
  "schemaVersion": "3.4.15",
  "updatedAt": "2023-08-30T08:42:47.034Z",
  "networkType": "ethereum",
  "devdoc": {
    "events": {
      "Approval(address,address,uint256)": {
        "details": "Emitted when `owner` enables `approved` to manage the `tokenId` token."
      },
      "ApprovalForAll(address,address,bool)": {
        "details": "Emitted when `owner` enables or disables (`approved`) `operator` to manage all of its assets."
      },
      "Locked(uint256)": {
        "details": "If a token is minted and the status is locked, this event should be emitted.",
        "params": {
          "tokenId": "The identifier for a token."
        }
      },
      "Transfer(address,address,uint256)": {
        "details": "Emitted when `tokenId` token is transferred from `from` to `to`."
      },
      "Unlocked(uint256)": {
        "details": "If a token is minted and the status is unlocked, this event should be emitted.",
        "params": {
          "tokenId": "The identifier for a token."
        }
      }
    },
    "kind": "dev",
    "methods": {
      "balanceOf(address)": {
        "details": "See {IERC721-balanceOf}."
      },
      "getApproved(uint256)": {
        "details": "See {IERC721-getApproved}."
      },
      "isApprovedForAll(address,address)": {
        "details": "See {IERC721-isApprovedForAll}."
      },
      "locked(uint256)": {
        "details": "SBTs assigned to zero address are considered invalid, and queries about them do throw.",
        "params": {
          "tokenId": "The identifier for an SBT."
        }
      },
      "name()": {
        "details": "See {IERC721Metadata-name}."
      },
      "owner()": {
        "details": "Returns the address of the current owner."
      },
      "ownerOf(uint256)": {
        "details": "See {IERC721-ownerOf}."
      },
      "renounceOwnership()": {
        "details": "Leaves the contract without owner. It will not be possible to call `onlyOwner` functions. Can only be called by the current owner. NOTE: Renouncing ownership will leave the contract without an owner, thereby disabling any functionality that is only available to the owner."
      },
      "safeTransferFrom(address,address,uint256)": {
        "details": "See {IERC721-safeTransferFrom}."
      },
      "safeTransferFrom(address,address,uint256,bytes)": {
        "details": "See {IERC721-safeTransferFrom}."
      },
      "setApprovalForAll(address,bool)": {
        "details": "See {IERC721-setApprovalForAll}."
      },
      "supportsInterface(bytes4)": {
        "details": "See {IERC165-supportsInterface}."
      },
      "symbol()": {
        "details": "See {IERC721Metadata-symbol}."
      },
      "tokenURI(uint256)": {
        "details": "See {IERC721Metadata-tokenURI}."
      },
      "transferFrom(address,address,uint256)": {
        "details": "See {IERC721-transferFrom}."
      },
      "transferOwnership(address)": {
        "details": "Transfers ownership of the contract to a new account (`newOwner`). Can only be called by the current owner."
      }
    },
    "version": 1
  },
  "userdoc": {
    "events": {
      "Locked(uint256)": {
        "notice": "Emitted when the locking status is changed to locked."
      },
      "Unlocked(uint256)": {
        "notice": "Emitted when the locking status is changed to unlocked."
      }
    },
    "kind": "user",
    "methods": {
      "locked(uint256)": {
        "notice": "Returns the locking status of an Soulbound Token"
      }
    },
    "version": 1
  }
}